{
  "_format": "hh-sol-artifact-1",
  "contractName": "Marketplace",
  "sourceName": "contracts/Marketplace.sol",
  "abi": [
    {
      "inputs": [
        {
          "internalType": "address",
          "name": "governmentAccount",
          "type": "address"
        }
      ],
      "stateMutability": "nonpayable",
      "type": "constructor"
    },
    {
      "anonymous": false,
      "inputs": [
        {
          "indexed": true,
          "internalType": "uint256",
          "name": "listingId",
          "type": "uint256"
        },
        {
          "indexed": true,
          "internalType": "uint256",
          "name": "tokenId",
          "type": "uint256"
        },
        {
          "indexed": true,
          "internalType": "address",
          "name": "assetContract",
          "type": "address"
        },
        {
          "indexed": false,
          "internalType": "uint256",
          "name": "price",
          "type": "uint256"
        },
        {
          "indexed": false,
          "internalType": "address",
          "name": "seller",
          "type": "address"
        },
        {
          "indexed": false,
          "internalType": "address",
          "name": "owner",
          "type": "address"
        }
      ],
      "name": "ListingCreated",
      "type": "event"
    },
    {
      "anonymous": false,
      "inputs": [
        {
          "indexed": true,
          "internalType": "uint256",
          "name": "listingId",
          "type": "uint256"
        },
        {
          "indexed": true,
          "internalType": "uint256",
          "name": "tokenId",
          "type": "uint256"
        },
        {
          "indexed": true,
          "internalType": "address",
          "name": "assetContract",
          "type": "address"
        },
        {
          "indexed": false,
          "internalType": "uint256",
          "name": "price",
          "type": "uint256"
        },
        {
          "indexed": false,
          "internalType": "address",
          "name": "seller",
          "type": "address"
        },
        {
          "indexed": false,
          "internalType": "address",
          "name": "buyer",
          "type": "address"
        }
      ],
      "name": "ListingSold",
      "type": "event"
    },
    {
      "inputs": [
        {
          "internalType": "uint256",
          "name": "listingId",
          "type": "uint256"
        }
      ],
      "name": "buy",
      "outputs": [],
      "stateMutability": "payable",
      "type": "function"
    },
    {
      "inputs": [
        {
          "internalType": "address",
          "name": "assetContract",
          "type": "address"
        },
        {
          "internalType": "uint256",
          "name": "tokenId",
          "type": "uint256"
        },
        {
          "internalType": "uint256",
          "name": "price",
          "type": "uint256"
        }
      ],
      "name": "createListing",
      "outputs": [],
      "stateMutability": "nonpayable",
      "type": "function"
    },
    {
      "inputs": [],
      "name": "getAllListings",
      "outputs": [
        {
          "components": [
            {
              "internalType": "uint256",
              "name": "listingId",
              "type": "uint256"
            },
            {
              "internalType": "uint256",
              "name": "price",
              "type": "uint256"
            },
            {
              "internalType": "address payable",
              "name": "seller",
              "type": "address"
            },
            {
              "internalType": "address",
              "name": "owner",
              "type": "address"
            },
            {
              "internalType": "address",
              "name": "assetContract",
              "type": "address"
            },
            {
              "internalType": "uint256",
              "name": "tokenId",
              "type": "uint256"
            }
          ],
          "internalType": "struct Marketplace.Listing[]",
          "name": "",
          "type": "tuple[]"
        }
      ],
      "stateMutability": "view",
      "type": "function"
    },
    {
      "inputs": [],
      "name": "getListingsCreated",
      "outputs": [
        {
          "components": [
            {
              "internalType": "uint256",
              "name": "listingId",
              "type": "uint256"
            },
            {
              "internalType": "uint256",
              "name": "price",
              "type": "uint256"
            },
            {
              "internalType": "address payable",
              "name": "seller",
              "type": "address"
            },
            {
              "internalType": "address",
              "name": "owner",
              "type": "address"
            },
            {
              "internalType": "address",
              "name": "assetContract",
              "type": "address"
            },
            {
              "internalType": "uint256",
              "name": "tokenId",
              "type": "uint256"
            }
          ],
          "internalType": "struct Marketplace.Listing[]",
          "name": "",
          "type": "tuple[]"
        }
      ],
      "stateMutability": "view",
      "type": "function"
    },
    {
      "inputs": [],
      "name": "getMyListings",
      "outputs": [
        {
          "components": [
            {
              "internalType": "uint256",
              "name": "listingId",
              "type": "uint256"
            },
            {
              "internalType": "uint256",
              "name": "price",
              "type": "uint256"
            },
            {
              "internalType": "address payable",
              "name": "seller",
              "type": "address"
            },
            {
              "internalType": "address",
              "name": "owner",
              "type": "address"
            },
            {
              "internalType": "address",
              "name": "assetContract",
              "type": "address"
            },
            {
              "internalType": "uint256",
              "name": "tokenId",
              "type": "uint256"
            }
          ],
          "internalType": "struct Marketplace.Listing[]",
          "name": "",
          "type": "tuple[]"
        }
      ],
      "stateMutability": "view",
      "type": "function"
    },
    {
      "inputs": [
        {
          "internalType": "uint256",
          "name": "listingId",
          "type": "uint256"
        }
      ],
      "name": "getSpecificListing",
      "outputs": [
        {
          "components": [
            {
              "internalType": "uint256",
              "name": "listingId",
              "type": "uint256"
            },
            {
              "internalType": "uint256",
              "name": "price",
              "type": "uint256"
            },
            {
              "internalType": "address payable",
              "name": "seller",
              "type": "address"
            },
            {
              "internalType": "address",
              "name": "owner",
              "type": "address"
            },
            {
              "internalType": "address",
              "name": "assetContract",
              "type": "address"
            },
            {
              "internalType": "uint256",
              "name": "tokenId",
              "type": "uint256"
            }
          ],
          "internalType": "struct Marketplace.Listing",
          "name": "",
          "type": "tuple"
        }
      ],
      "stateMutability": "view",
      "type": "function"
    },
    {
      "inputs": [],
      "name": "governmentCommission",
      "outputs": [
        {
          "internalType": "uint64",
          "name": "",
          "type": "uint64"
        }
      ],
      "stateMutability": "view",
      "type": "function"
    },
    {
      "inputs": [
        {
          "internalType": "uint256",
          "name": "",
          "type": "uint256"
        }
      ],
      "name": "listings",
      "outputs": [
        {
          "internalType": "uint256",
          "name": "listingId",
          "type": "uint256"
        },
        {
          "internalType": "uint256",
          "name": "price",
          "type": "uint256"
        },
        {
          "internalType": "address payable",
          "name": "seller",
          "type": "address"
        },
        {
          "internalType": "address",
          "name": "owner",
          "type": "address"
        },
        {
          "internalType": "address",
          "name": "assetContract",
          "type": "address"
        },
        {
          "internalType": "uint256",
          "name": "tokenId",
          "type": "uint256"
        }
      ],
      "stateMutability": "view",
      "type": "function"
    },
    {
      "inputs": [],
      "name": "marketplaceCommission",
      "outputs": [
        {
          "internalType": "uint64",
          "name": "",
          "type": "uint64"
        }
      ],
      "stateMutability": "view",
      "type": "function"
    }
  ],
  "bytecode": "0x60806040526002600460146101000a81548167ffffffffffffffff021916908367ffffffffffffffff1602179055506001600560006101000a81548167ffffffffffffffff021916908367ffffffffffffffff1602179055503480156200006557600080fd5b506040516200211f3803806200211f83398181016040528101906200008b919062000133565b600160008190555033600360006101000a81548173ffffffffffffffffffffffffffffffffffffffff021916908373ffffffffffffffffffffffffffffffffffffffff16021790555080600460006101000a81548173ffffffffffffffffffffffffffffffffffffffff021916908373ffffffffffffffffffffffffffffffffffffffff16021790555050620001ad565b6000815190506200012d8162000193565b92915050565b6000602082840312156200014657600080fd5b600062000156848285016200011c565b91505092915050565b60006200016c8262000173565b9050919050565b600073ffffffffffffffffffffffffffffffffffffffff82169050919050565b6200019e816200015f565b8114620001aa57600080fd5b50565b611f6280620001bd6000396000f3fe6080604052600436106100855760003560e01c806374fbf1c61161005957806374fbf1c614610146578063ae73ccec14610171578063d96a094a1461019c578063de0123f0146101b8578063de74e57b146101e357610085565b8062754eea1461008a57806324780c56146100b557806331edb5e9146100de57806346f7abc21461011b575b600080fd5b34801561009657600080fd5b5061009f610225565b6040516100ac9190611a15565b60405180910390f35b3480156100c157600080fd5b506100dc60048036038101906100d791906116f6565b61059e565b005b3480156100ea57600080fd5b5061010560048036038101906101009190611745565b61084f565b6040516101129190611ab7565b60405180910390f35b34801561012757600080fd5b5061013061099c565b60405161013d9190611ba1565b60405180910390f35b34801561015257600080fd5b5061015b6109b6565b6040516101689190611ba1565b60405180910390f35b34801561017d57600080fd5b506101866109d0565b6040516101939190611a15565b60405180910390f35b6101b660048036038101906101b19190611745565b610ca0565b005b3480156101c457600080fd5b506101cd6111c3565b6040516101da9190611a15565b60405180910390f35b3480156101ef57600080fd5b5061020a60048036038101906102059190611745565b61153c565b60405161021c96959493929190611b40565b60405180910390f35b6060600061023360016115d8565b905060008060005b838110156102dc573373ffffffffffffffffffffffffffffffffffffffff166006600060018461026b9190611c06565b815260200190815260200160002060030160009054906101000a900473ffffffffffffffffffffffffffffffffffffffff1673ffffffffffffffffffffffffffffffffffffffff1614156102c9576001836102c69190611c06565b92505b80806102d490611db3565b91505061023b565b5060008267ffffffffffffffff81111561031f577f4e487b7100000000000000000000000000000000000000000000000000000000600052604160045260246000fd5b60405190808252806020026020018201604052801561035857816020015b610345611654565b81526020019060019003908161033d5790505b50905060005b84811015610593573373ffffffffffffffffffffffffffffffffffffffff166006600060018461038e9190611c06565b815260200190815260200160002060030160009054906101000a900473ffffffffffffffffffffffffffffffffffffffff1673ffffffffffffffffffffffffffffffffffffffff1614156105805760006001826103eb9190611c06565b9050600660008281526020019081526020016000206040518060c001604052908160008201548152602001600182015481526020016002820160009054906101000a900473ffffffffffffffffffffffffffffffffffffffff1673ffffffffffffffffffffffffffffffffffffffff1673ffffffffffffffffffffffffffffffffffffffff1681526020016003820160009054906101000a900473ffffffffffffffffffffffffffffffffffffffff1673ffffffffffffffffffffffffffffffffffffffff1673ffffffffffffffffffffffffffffffffffffffff1681526020016004820160009054906101000a900473ffffffffffffffffffffffffffffffffffffffff1673ffffffffffffffffffffffffffffffffffffffff1673ffffffffffffffffffffffffffffffffffffffff168152602001600582015481525050838581518110610564577f4e487b7100000000000000000000000000000000000000000000000000000000600052603260045260246000fd5b602002602001018190525060018461057c9190611c06565b9350505b808061058b90611db3565b91505061035e565b508094505050505090565b600260005414156105e4576040517f08c379a00000000000000000000000000000000000000000000000000000000081526004016105db90611a97565b60405180910390fd5b60026000819055506105f660016115e6565b600061060260016115d8565b90506040518060c001604052808281526020018381526020013373ffffffffffffffffffffffffffffffffffffffff168152602001600073ffffffffffffffffffffffffffffffffffffffff1681526020018573ffffffffffffffffffffffffffffffffffffffff1681526020018481525060066000838152602001908152602001600020600082015181600001556020820151816001015560408201518160020160006101000a81548173ffffffffffffffffffffffffffffffffffffffff021916908373ffffffffffffffffffffffffffffffffffffffff16021790555060608201518160030160006101000a81548173ffffffffffffffffffffffffffffffffffffffff021916908373ffffffffffffffffffffffffffffffffffffffff16021790555060808201518160040160006101000a81548173ffffffffffffffffffffffffffffffffffffffff021916908373ffffffffffffffffffffffffffffffffffffffff16021790555060a082015181600501559050508373ffffffffffffffffffffffffffffffffffffffff166323b872dd3330866040518463ffffffff1660e01b81526004016107ba939291906119de565b600060405180830381600087803b1580156107d457600080fd5b505af11580156107e8573d6000803e3d6000fd5b505050508373ffffffffffffffffffffffffffffffffffffffff1683827f7729fb56c859d1df34008f4656ba729f0c90665cd80d9d67499b80b0b97924748533600060405161083993929190611b09565b60405180910390a4506001600081905550505050565b610857611654565b600660008381526020019081526020016000206040518060c001604052908160008201548152602001600182015481526020016002820160009054906101000a900473ffffffffffffffffffffffffffffffffffffffff1673ffffffffffffffffffffffffffffffffffffffff1673ffffffffffffffffffffffffffffffffffffffff1681526020016003820160009054906101000a900473ffffffffffffffffffffffffffffffffffffffff1673ffffffffffffffffffffffffffffffffffffffff1673ffffffffffffffffffffffffffffffffffffffff1681526020016004820160009054906101000a900473ffffffffffffffffffffffffffffffffffffffff1673ffffffffffffffffffffffffffffffffffffffff1673ffffffffffffffffffffffffffffffffffffffff1681526020016005820154815250509050919050565b600460149054906101000a900467ffffffffffffffff1681565b600560009054906101000a900467ffffffffffffffff1681565b606060006109de60016115d8565b905060006109ec60026115d8565b826109f79190611ce7565b905060008167ffffffffffffffff811115610a3b577f4e487b7100000000000000000000000000000000000000000000000000000000600052604160045260246000fd5b604051908082528060200260200182016040528015610a7457816020015b610a61611654565b815260200190600190039081610a595790505b509050600080600190505b848111610c9557600073ffffffffffffffffffffffffffffffffffffffff166006600083815260200190815260200160002060030160009054906101000a900473ffffffffffffffffffffffffffffffffffffffff1673ffffffffffffffffffffffffffffffffffffffff161415610c8257600660008281526020019081526020016000206040518060c001604052908160008201548152602001600182015481526020016002820160009054906101000a900473ffffffffffffffffffffffffffffffffffffffff1673ffffffffffffffffffffffffffffffffffffffff1673ffffffffffffffffffffffffffffffffffffffff1681526020016003820160009054906101000a900473ffffffffffffffffffffffffffffffffffffffff1673ffffffffffffffffffffffffffffffffffffffff1673ffffffffffffffffffffffffffffffffffffffff1681526020016004820160009054906101000a900473ffffffffffffffffffffffffffffffffffffffff1673ffffffffffffffffffffffffffffffffffffffff1673ffffffffffffffffffffffffffffffffffffffff168152602001600582015481525050838381518110610c68577f4e487b7100000000000000000000000000000000000000000000000000000000600052603260045260246000fd5b60200260200101819052508180610c7e90611db3565b9250505b8080610c8d90611db3565b915050610a7f565b508194505050505090565b60026000541415610ce6576040517f08c379a0000000000000000000000000000000000000000000000000000000008152600401610cdd90611a97565b60405180910390fd5b6002600081905550600073ffffffffffffffffffffffffffffffffffffffff163373ffffffffffffffffffffffffffffffffffffffff161415610d5e576040517f08c379a0000000000000000000000000000000000000000000000000000000008152600401610d5590611a57565b60405180910390fd5b600060066000838152602001908152602001600020905081816000015414610dbb576040517f08c379a0000000000000000000000000000000000000000000000000000000008152600401610db290611a37565b60405180910390fd5b6000610e076064610df9600560009054906101000a900467ffffffffffffffff1667ffffffffffffffff1685600101546115fc90919063ffffffff16565b61161290919063ffffffff16565b90506000610e556064610e47600460149054906101000a900467ffffffffffffffff1667ffffffffffffffff1686600101546115fc90919063ffffffff16565b61161290919063ffffffff16565b90506000610e8282610e7485876001015461162890919063ffffffff16565b61162890919063ffffffff16565b9050803414610ec6576040517f08c379a0000000000000000000000000000000000000000000000000000000008152600401610ebd90611a77565b60405180910390fd5b338460030160006101000a81548173ffffffffffffffffffffffffffffffffffffffff021916908373ffffffffffffffffffffffffffffffffffffffff160217905550600460009054906101000a900473ffffffffffffffffffffffffffffffffffffffff1673ffffffffffffffffffffffffffffffffffffffff166108fc610f596002856115fc90919063ffffffff16565b9081150290604051600060405180830381858888f19350505050158015610f84573d6000803e3d6000fd5b50600360009054906101000a900473ffffffffffffffffffffffffffffffffffffffff1673ffffffffffffffffffffffffffffffffffffffff166108fc849081150290604051600060405180830381858888f19350505050158015610fed573d6000803e3d6000fd5b508360020160009054906101000a900473ffffffffffffffffffffffffffffffffffffffff1673ffffffffffffffffffffffffffffffffffffffff166108fc61104384876001015461163e90919063ffffffff16565b9081150290604051600060405180830381858888f1935050505015801561106e573d6000803e3d6000fd5b508360040160009054906101000a900473ffffffffffffffffffffffffffffffffffffffff1673ffffffffffffffffffffffffffffffffffffffff166323b872dd303387600501546040518463ffffffff1660e01b81526004016110d4939291906119de565b600060405180830381600087803b1580156110ee57600080fd5b505af1158015611102573d6000803e3d6000fd5b5050505061111060026115e6565b8360040160009054906101000a900473ffffffffffffffffffffffffffffffffffffffff1673ffffffffffffffffffffffffffffffffffffffff168460050154867f148ca160b27c6c5ca3e17da9adce8d291e433a29e9fbde6333ed6cc8fd8f6ace87600101548860020160009054906101000a900473ffffffffffffffffffffffffffffffffffffffff16336040516111ac93929190611ad2565b60405180910390a450505050600160008190555050565b606060006111d160016115d8565b905060008060005b8381101561127a573373ffffffffffffffffffffffffffffffffffffffff16600660006001846112099190611c06565b815260200190815260200160002060020160009054906101000a900473ffffffffffffffffffffffffffffffffffffffff1673ffffffffffffffffffffffffffffffffffffffff161415611267576001836112649190611c06565b92505b808061127290611db3565b9150506111d9565b5060008267ffffffffffffffff8111156112bd577f4e487b7100000000000000000000000000000000000000000000000000000000600052604160045260246000fd5b6040519080825280602002602001820160405280156112f657816020015b6112e3611654565b8152602001906001900390816112db5790505b50905060005b84811015611531573373ffffffffffffffffffffffffffffffffffffffff166006600060018461132c9190611c06565b815260200190815260200160002060020160009054906101000a900473ffffffffffffffffffffffffffffffffffffffff1673ffffffffffffffffffffffffffffffffffffffff16141561151e5760006001826113899190611c06565b9050600660008281526020019081526020016000206040518060c001604052908160008201548152602001600182015481526020016002820160009054906101000a900473ffffffffffffffffffffffffffffffffffffffff1673ffffffffffffffffffffffffffffffffffffffff1673ffffffffffffffffffffffffffffffffffffffff1681526020016003820160009054906101000a900473ffffffffffffffffffffffffffffffffffffffff1673ffffffffffffffffffffffffffffffffffffffff1673ffffffffffffffffffffffffffffffffffffffff1681526020016004820160009054906101000a900473ffffffffffffffffffffffffffffffffffffffff1673ffffffffffffffffffffffffffffffffffffffff1673ffffffffffffffffffffffffffffffffffffffff168152602001600582015481525050838581518110611502577f4e487b7100000000000000000000000000000000000000000000000000000000600052603260045260246000fd5b602002602001018190525060018461151a9190611c06565b9350505b808061152990611db3565b9150506112fc565b508094505050505090565b60066020528060005260406000206000915090508060000154908060010154908060020160009054906101000a900473ffffffffffffffffffffffffffffffffffffffff16908060030160009054906101000a900473ffffffffffffffffffffffffffffffffffffffff16908060040160009054906101000a900473ffffffffffffffffffffffffffffffffffffffff16908060050154905086565b600081600001549050919050565b6001816000016000828254019250508190555050565b6000818361160a9190611c8d565b905092915050565b600081836116209190611c5c565b905092915050565b600081836116369190611c06565b905092915050565b6000818361164c9190611ce7565b905092915050565b6040518060c001604052806000815260200160008152602001600073ffffffffffffffffffffffffffffffffffffffff168152602001600073ffffffffffffffffffffffffffffffffffffffff168152602001600073ffffffffffffffffffffffffffffffffffffffff168152602001600081525090565b6000813590506116db81611efe565b92915050565b6000813590506116f081611f15565b92915050565b60008060006060848603121561170b57600080fd5b6000611719868287016116cc565b935050602061172a868287016116e1565b925050604061173b868287016116e1565b9150509250925092565b60006020828403121561175757600080fd5b6000611765848285016116e1565b91505092915050565b600061177a83836118bb565b60c08301905092915050565b61178f81611d7d565b82525050565b61179e81611d2d565b82525050565b6117ad81611d2d565b82525050565b6117bc81611d1b565b82525050565b6117cb81611d1b565b82525050565b60006117dc82611bcc565b6117e68185611be4565b93506117f183611bbc565b8060005b83811015611822578151611809888261176e565b975061181483611bd7565b9250506001810190506117f5565b5085935050505092915050565b600061183c601783611bf5565b915061184782611e5a565b602082019050919050565b600061185f601783611bf5565b915061186a82611e83565b602082019050919050565b6000611882601283611bf5565b915061188d82611eac565b602082019050919050565b60006118a5601f83611bf5565b91506118b082611ed5565b602082019050919050565b60c0820160008201516118d160008501826119b1565b5060208201516118e460208501826119b1565b5060408201516118f76040850182611795565b50606082015161190a60608501826117b3565b50608082015161191d60808501826117b3565b5060a082015161193060a08501826119b1565b50505050565b60c08201600082015161194c60008501826119b1565b50602082015161195f60208501826119b1565b5060408201516119726040850182611795565b50606082015161198560608501826117b3565b50608082015161199860808501826117b3565b5060a08201516119ab60a08501826119b1565b50505050565b6119ba81611d5f565b82525050565b6119c981611d5f565b82525050565b6119d881611d69565b82525050565b60006060820190506119f360008301866117c2565b611a0060208301856117c2565b611a0d60408301846119c0565b949350505050565b60006020820190508181036000830152611a2f81846117d1565b905092915050565b60006020820190508181036000830152611a508161182f565b9050919050565b60006020820190508181036000830152611a7081611852565b9050919050565b60006020820190508181036000830152611a9081611875565b9050919050565b60006020820190508181036000830152611ab081611898565b9050919050565b600060c082019050611acc6000830184611936565b92915050565b6000606082019050611ae760008301866119c0565b611af46020830185611786565b611b0160408301846117c2565b949350505050565b6000606082019050611b1e60008301866119c0565b611b2b60208301856117c2565b611b3860408301846117c2565b949350505050565b600060c082019050611b5560008301896119c0565b611b6260208301886119c0565b611b6f60408301876117a4565b611b7c60608301866117c2565b611b8960808301856117c2565b611b9660a08301846119c0565b979650505050505050565b6000602082019050611bb660008301846119cf565b92915050565b6000819050602082019050919050565b600081519050919050565b6000602082019050919050565b600082825260208201905092915050565b600082825260208201905092915050565b6000611c1182611d5f565b9150611c1c83611d5f565b9250827fffffffffffffffffffffffffffffffffffffffffffffffffffffffffffffffff03821115611c5157611c50611dfc565b5b828201905092915050565b6000611c6782611d5f565b9150611c7283611d5f565b925082611c8257611c81611e2b565b5b828204905092915050565b6000611c9882611d5f565b9150611ca383611d5f565b9250817fffffffffffffffffffffffffffffffffffffffffffffffffffffffffffffffff0483118215151615611cdc57611cdb611dfc565b5b828202905092915050565b6000611cf282611d5f565b9150611cfd83611d5f565b925082821015611d1057611d0f611dfc565b5b828203905092915050565b6000611d2682611d3f565b9050919050565b6000611d3882611d3f565b9050919050565b600073ffffffffffffffffffffffffffffffffffffffff82169050919050565b6000819050919050565b600067ffffffffffffffff82169050919050565b6000611d8882611d8f565b9050919050565b6000611d9a82611da1565b9050919050565b6000611dac82611d3f565b9050919050565b6000611dbe82611d5f565b91507fffffffffffffffffffffffffffffffffffffffffffffffffffffffffffffffff821415611df157611df0611dfc565b5b600182019050919050565b7f4e487b7100000000000000000000000000000000000000000000000000000000600052601160045260246000fd5b7f4e487b7100000000000000000000000000000000000000000000000000000000600052601260045260246000fd5b7f50726f706572747920646f6573206e6f74206578697374000000000000000000600082015250565b7f416464726573732073686f756c64206e6f742062652030000000000000000000600082015250565b7f496e737566666963656e7420616d6f756e740000000000000000000000000000600082015250565b7f5265656e7472616e637947756172643a207265656e7472616e742063616c6c00600082015250565b611f0781611d1b565b8114611f1257600080fd5b50565b611f1e81611d5f565b8114611f2957600080fd5b5056fea2646970667358221220df401964abfe02c1c9eb4d14942db7549378b5a4e4f5a4b45d7b8955fb85e2a864736f6c63430008040033",
  "linkReferences": {},
  "deployedLinkReferences": {}
}